:100000000C9476010C949E010C949E010C949E011C
:100010000C949E010C949E010C949E010C949E01E4
:100020000C949E010C949E010C949E010C949E01D4
:100030000C949E010C949E010C949E010C949E01C4
:100040000C948F2A0C949E010C94FF2A0C94D92AAC
:100050000C949E010C949E010C949E010C949E01A4
:100060000C949E010C949E014E414E494E495459A8
:10007000494E46CDCCCC3D0AD7233C17B7D1387773
:10008000CC2B329595E6241FB14F0A000020410089
:1000900000C84200401C4620BCBE4CCA1B0E5AAED3
:1000A000C59D7400001010000010000010100080AA
:1000B0001010C0101010C0101010401010100010C0
:1000C0000010101030003000100000000010000080
:1000D00010100000100010801010B0805010A08090
:1000E000501080802010C0801010C00010000080D0
:1000F00010106080805000002058400018584000C8
:100100001058408820484000000800001048400077
:10011000104840F8F8F800F800F800F8F800F80087
:10012000F8F800F8F8F8F8F800000000F80000F817
:10013000F8000000F800F800F8F8F870202070507F
:10014000F870205050507000001010000010000097
:10015000101000801010C0101010C01010104010AF
:1001600010100010001010103000300010000000BF
:100170000010000010100000100010801010B0805F
:100180005010A080501080802010C0801010C0003F
:100190001000008010106080805000002058400047
:1001A00018584000105840882048400000080000BF
:1001B00010484000104840F8F8F800F800F800F83F
:1001C000F800F800F8F800F8F8F8F8F80000000077
:1001D000F80000F8F8000000F800F800F8F8F870EF
:1001E00020207050F870205050507050F87020004F
:1001F00000FF00002AD5000055AB00007FAB0000D7
:10020000ABAB0000D5560000FF00002AD50000551A
:10021000AB0000AA560000FF000000D5002A00AB8A
:1002200000550081007F005500AB002B00D5004534
:1002300072726F7221004F4B0044504C2056312E89
:10024000302E330D0A00574C00524C0042470042FA
:100250004C005442005541005655004C4400444364
:10026000004342004450004F4B00434F00525200A5
:10027000564C00564D00415300414E00425200463C
:100280004143544F52590052455354415254000077
:10029000000000240027002A00000000002500289C
:1002A000002B0000000000230026002900040404A5
:1002B000040404040402020202020203030303030F
:1002C00003010204081020408001020408102001EC
:1002D00002040810200000000800020100000304CE
:1002E00007000000000000000000312B11241FBE99
:1002F000CFEFD8E0DEBFCDBF12E0A0E0B1E0E0EB91
:10030000F3E702C005900D92A23FB107D9F724E0B0
:10031000A2EFB2E001C01D92A533B207E1F711E0F0
:10032000C6E7D1E004C02197FE010E94A037C5377F
:10033000D107C9F70E94712B0C94D6390C94000098
:10034000EF92FF920F931F93CF93DF93EC017B010A
:100350008A01E881F9810480F581E02D0995FB820D
:10036000EA821F870E87E881F9810684F785E02DF0
:10037000CE010995009701F19C0150E040E060E456
:1003800072E48FE090E00E94E23680912304909125
:100390002404A0912504B091260482179307A40792
:1003A000B50710F4DA01C901809323049093240463
:1003B000A0932504B0932604CE01DF91CF911F9125
:1003C0000F91FF90EF900895833081F028F48130F1
:1003D00099F08230A9F008958730A9F08830C9F0EB
:1003E0008430B1F4809180008F7D03C080918000C3
:1003F0008F7780938000089584B58F7784BD0895AA
:1004000084B58F7DFBCF8091B0008F778093B00053
:1004100008958091B0008F7DF9CFCF93DF93282F7F
:1004200030E0F901EB52FD4F8491F901EF53FD4F9C
:10043000D491F901E355FD4FC491CC23A1F0811172
:100440000E94E401EC2FF0E0EE0FFF1FED55FD4F91
:10045000A591B491EC91ED2381E090E009F480E066
:10046000DF91CF91089580E090E0FACF1F93CF9372
:10047000DF93282F30E0F901EB52FD4F8491F90111
:10048000EF53FD4FD491F901E355FD4FC491CC23B7
:10049000A9F0162F81110E94E401EC2FF0E0EE0F7D
:1004A000FF1FE756FD4FA591B4918FB7F894EC91DB
:1004B000111108C0D095DE23DC938FBFDF91CF915F
:1004C0001F910895DE2BF8CFCF93DF9390E0FC01CE
:1004D000EF53FD4F249183559D4FFC018491882358
:1004E000C9F090E0880F991FFC01E157FD4FA591DD
:1004F000B491FC01E756FD4FC591D49161110DC037
:100500009FB7F8948C91209582238C93888128231F
:1005100028839FBFDF91CF910895623051F49FB738
:10052000F8943C91822F809583238C93E8812E2B25
:10053000EFCF8FB7F894EC912E2B2C938FBFEACF8F
:100540003FB7F89480917F0390918003A09181033D
:10055000B091820326B5A89B05C02F3F19F00196E4
:10056000A11DB11D3FBFBA2FA92F982F8827BC010D
:10057000CD01620F711D811D911D42E0660F771F35
:10058000881F991F4A95D1F708952FB7F894609165
:100590007B0370917C0380917D0390917E032FBF3C
:1005A0000895AF92BF92CF92DF92EF92FF920F9396
:1005B0001F93CF93DF936C017B018B01040F151FF9
:1005C000EB015E01AE18BF08C017D10759F0699161
:1005D000D601ED91FC910190F081E02DC6010995C5
:1005E000892B79F7C501DF91CF911F910F91FF9072
:1005F000EF90DF90CF90BF90AF900895FC01538DA6
:10060000448D252F30E0842F90E0821B930B5417EC
:1006100010F0CF96089501970895FC01918D828D79
:10062000981761F0A28DAE0FBF2FB11D5D968C9112
:10063000928D9F5F9F73928F90E008958FEF9FEF51
:100640000895FC01918D828D981731F0828DE80F0D
:10065000F11D858D90E008958FEF9FEF0895FC01C7
:10066000918D228D892F90E0805C9F4F821B910994
:100670008F739927089583E893E00E942F0321E068
:10068000892B09F420E0822F089580E090E0892BE7
:1006900029F00E943B0381110C9400000895FC0195
:1006A000A48DA80FB92FB11DA35ABF4F2C91848DD3
:1006B00090E001968F739927848FA689B7892C9330
:1006C000A089B1898C91837080648C93938D848D83
:1006D000981306C00288F389E02D80818F7D808386
:1006E0000895EF92FF920F931F93CF93DF93EC0146
:1006F00081E0888F9B8D8C8D98131AC0E889F989C9
:10070000808185FF15C09FB7F894EE89FF896083CB
:10071000E889F98980818370806480839FBF81E04C
:1007200090E0DF91CF911F910F91FF90EF9008958E
:10073000F62E0B8D10E00F5F1F4F0F731127E02E69
:100740008C8D8E110CC00FB607FCFACFE889F989A1
:10075000808185FFF5CFCE010E944F03F1CFEB8D55
:10076000EC0FFD2FF11DE35AFF4FF0829FB7F89475
:100770000B8FEA89FB8980818062CFCF0F931F9313
:10078000CF93DF938C01D0E0C0E0F801EC0FFD1FA8
:100790006491662341F083E893E00E947103892B02
:1007A00011F02196F2CF42E050E06DEE72E083E866
:1007B00093E00E94D1028C0F9D1FDF91CF911F917A
:1007C0000F910895CF93DF93EC01888D8823B9F0C2
:1007D000AA89BB89E889F9898C9185FD03C080814C
:1007E00086FD0DC00FB607FCF7CF8C9185FFF2CFC9
:1007F000808185FFEDCFCE010E944F03E9CFDF91CD
:10080000CF910895FC0161A742A723A70895DC01B9
:10081000ED91FC910284F385E02D099581E0089526
:10082000FC018BE491E09183808312821382148215
:1008300015821782168211861086138612861586F7
:1008400014861686178681E0808B118A128A138A95
:10085000148A168A158A108E178A128E118E148E9B
:10086000138E158E168E178E11A210A213A212A22D
:1008700008950F931F93CF93DF93EC018B010E9498
:10088000100487EC92E0998388831CA21EA21DA20B
:1008900018A61FA219A61AA68FEF8BA71DA70CA733
:1008A000D801ED91FC910680F781E02DC8010995F2
:1008B0009EA38DA3F8018281938198A78FA3DF91D6
:1008C000CF911F910F910895CF93DF93EC0119A25F
:1008D00018A2E881F9810288F389E02D70E060E0D8
:1008E00009951BA21AA21E8A1D8AE881F981028439
:1008F000F385E02DCE01DF91CF910994CF93DF9363
:10090000EC016F8F613031F078F16230D1F0DF911E
:10091000CF91089589EB94E099A388A3E881F981A8
:100920000288F389E02D68E873E1CE0109951E86FF
:1009300080EA95E19BA38AA384E190E09E8B8D8B56
:10094000E6CF8EEF93E299A388A3E881F98102882C
:10095000F389E02D64E670E0CE0109951E861BA2A6
:100960001AA21E8A1D8AD3CFDF91CF910C94640402
:100970000895CF93DF93EC018E858130B9F030F08C
:100980008230F1F08E858F5F8E872AC0E881F981F1
:100990000284F385E02DCE01099580EA95E19BA3C1
:1009A0008AA384E190E09E8B8D8BECCFE881F98166
:1009B0000284F385E02DCE0109958EEF9BE1EFCF08
:1009C000E881F9810284F385E02DCE01099585ED5A
:1009D00094E19BA38AA384E190E09E8B8D8B1E867D
:1009E000DF91CF910895282F86FD2095E22FEF7398
:1009F0002F7086FD2F5FE695E695E695E670F0E0B0
:100A0000E05EFE4F9181929F902D212D11249295B1
:100A10009F702295207F922B2081920F87FD9195C8
:100A200080E8890F08958F929F92AF92BF92CF92E4
:100A3000DF92EF92FF92CF93DF93EC018C8D8E309B
:100A400008F08E508770806480937C0080917A00DB
:100A5000806480937A0080917A0086FDFCCF60915B
:100A6000780070917900CC80DD80EE80FF8090E08E
:100A700080E00E94AA3520E030E040EA50E40E9485
:100A80000B3620E030E040E85AE30E940B364B0181
:100A90005C01288139814A815B81C701B6010E94CE
:100AA000C2379B01AC01C701B6010E942E389B01E1
:100AB000AC01C501B4010E942E38688779878A8706
:100AC0009B87DF91CF91FF90EF90DF90CF90BF9009
:100AD000AF909F908F900895CF93DF93EC016F8F2D
:100AE0006623B9F0613091F482E696E199A388A378
:100AF000E881F9810288F389E02D6EE170E0CE0192
:100B000009951BA21AA21E8A1D8A1E86DF91CF910B
:100B1000089519A218A2E881F9810288F389E02DCD
:100B200070E060E009951BA21AA21E8A1D8AE88166
:100B3000F9810284F385E02DCE01DF91CF910994F4
:100B4000CF93DF93EC016F8F613049F008F444C01C
:100B50006230C1F0633061F1DF91CF9108958DE192
:100B600097E199A388A3E881F9810288F389E02DB0
:100B70006EE170E0CE0109951BA21AA21E8A1D8AA1
:100B80001E86EACF83EF96E199A388A3E881F981D5
:100B90000288F389E02D6EE170E0CE0109958FE9BE
:100BA00096E19BA38AA38AE090E09E8B8D8BE8CF91
:100BB00080EB96E199A388A3E881F9810288F38903
:100BC000E02D6EE170E0CE0109958FE996E19BA3DF
:100BD0008AA384E190E0E9CF19A218A2E881F98103
:100BE0000288F389E02D70E060E009951BA21AA24B
:100BF0001E8A1D8AE881F9810284F385E02DCE01E9
:100C0000DF91CF910994CF93DF93EC0119A218A241
:100C1000E881F9810288F389E02D70E060E00995B0
:100C2000E881F9810284F385E02DCE01DF91CF9137
:100C30000994CF93DF93EC0119A218A2E881F981FE
:100C40000288F389E02D70E060E00995E881F98180
:100C50000284F385E02DCE01DF91CF910994CF93EB
:100C6000DF93EC0119A218A2E881F9810288F389C7
:100C7000E02D70E060E00995E881F9810284F38558
:100C8000E02DCE01DF91CF910994CF93DF93EC015A
:100C900019A218A2E881F9810288F389E02D70E099
:100CA00060E00995E881F9810284F385E02DCE01A9
:100CB000DF91CF9109940895FC01E45EFE4F6083BB
:100CC00031964083825E9E4FFC0120830895DC01B3
:100CD0005F966C935F97662381F0613081F420EE1C
:100CE00035E291963C932E939097ED91FC9102887A
:100CF000F389E02D68EC70E009940C9403060895E4
:100D0000DC015F966C935F97662381F0613081F41C
:100D100020EB34E291963C932E939097ED91FC91C9
:100D20000288F389E02D64EF71E009940C941906B0
:100D30000895DC015F966C935F97662381F06130C4
:100D400081F422EE34E291963C932E939097ED91AC
:100D5000FC910288F389E02D68EC70E009940C9412
:100D60002F060895CF93DF93EC016F8F613041F030
:100D7000F0F16230A9F0633049F1DF91CF9108952D
:100D800084EF95E299A388A38AE090E09B878A8705
:100D900084EF91E09D878C876F879F838E83EDCF53
:100DA00084EF95E299A388A31B861A861D861C866C
:100DB0001F861F821E82E881F9810288F389E02D57
:100DC00064EF71E0CE01DF91CF91099419A218A2CE
:100DD0001B861A861D861C861F861F821E82E8813E
:100DE000F9810288F389E02D70E060E0EBCF19A271
:100DF00018A21B861A861D861C861F861F821E82CD
:100E0000E881F9810288F389E02D70E060E00995BE
:100E1000E881F9810284F385E02DCE01DF91CF9145
:100E20000994DC015F966C935F97662381F06130D3
:100E300081F428E036E291963C932E939097ED91C1
:100E4000FC910288F389E02D68EC70E009940C9421
:100E5000450608950895CF92DF92EF92CF93DF93E6
:100E6000EC01643028F5962F990F990F690F83E0F4
:100E7000689FB001112427E030E081E090E0EFA10D
:100E8000F8A5E60FF71FDC01022E01C0AA0F0A9495
:100E9000EAF7A42399F0C9A4DAA4EBA4C082D18212
:100EA000E282215031096D5F7F4F2230310539F7E1
:100EB000DF91CF91EF90DF90CF9008951082118253
:100EC0001282EFCFCF93DF93FC01678F693010F56B
:100ED000EC01E62FF0E0EF58F84FA881B9810C94AF
:100EE000A037D0077A078D079A07A407B907BC0770
:100EF000C607900787EA9AE199A388A35296ED91D5
:100F0000FC9164E670E0CE0109951E861BA21AA230
:100F10001E8A1D8ADF91CF91089587E296E2ECCF79
:100F200081E09AE199A388A35296ED91FC916CE23D
:100F300071E0E9CF88E799E199A388A35296ED91F2
:100F4000FC9168EE73E0DFCF88E499E199A388A370
:100F50005296ED91FC916CE370E0CE0109951E86EE
:100F600083ED97E19BA38AA385E090E09E8B8D8B18
:100F7000D1CF8EEC98E1EACF81E998E199A388A3DB
:100F80005296ED91FC9164E170E0BDCF84EE97E163
:100F900099A388A35296ED91FC9160E273E0DDCFB6
:100FA00019A218A25296ED91FC9170E060E00995AB
:100FB0001BA21AA21E8A1D8AE881F9810284F38588
:100FC000E02DCE01DF91CF910994CF93DF93EC0117
:100FD0006F8F6230D1F048F4662391F184E491E29E
:100FE0006130A9F0DF91CF9108956330E9F064306A
:100FF000C9F789EB90E299A388A3E881F981028877
:10100000F389E02D6CE271E00BC080E097E299A3D8
:1010100088A3E881F9810288F389E02D64E670E015
:10102000CE0109951E86DECF82E490E299A388A3C3
:10103000E881F9810288F389E02D68EE73E0F0CF52
:1010400019A218A2E881F9810288F389E02D70E0E5
:1010500060E00995E881F9810284F385E02DCE01F5
:10106000DF91CF9109940F931F93CF93DF9320913A
:10107000F7022F5F322F37703093F70220FF2BC01B
:1010800020E831FD2064347009F02062205FFC010B
:10109000EC01239600E011E06785662329F070E0FB
:1010A000C8010E948C376F5F6187822F869F080E70
:1010B00080E0811D1124811110C01682662311F079
:1010C000615061873196EC17FD0731F7DF91CF91C1
:1010D0001F910F91089520E0D4CF81508683EECFE9
:1010E000CF93DF93EC010E94A00279836883DF91A4
:1010F000CF910895CF93DF93EC010E94A002288145
:101100003981621B730B6A307105B8F3DF91CF919F
:1011100008954F925F927F928F929F92AF92BF926B
:10112000CF92DF92EF92FF920F931F93CF93DF93B3
:10113000EB0146962C010E947A08F8948A819B81E3
:10114000181619060CF0CDC1E881F9816BB1862E15
:10115000689483F83BB1377F3BB9DA848F81ED2CFB
:10116000E81A8E2DEF824C85042E000C550BAA81B7
:10117000BB817889FF84E9887F5FF394E3949E8143
:101180009884B984AB841181C12C2C2D0C2D6C2D2D
:101190006181112788946111680F08F46FEF8195C0
:1011A000889470FD160F1795889471FD160F17958A
:1011B000889472FD160F1795889473FD160F179576
:1011C000889474FD160F1795889475FD160F179562
:1011D000889476FD160F1795889477FD160F17954E
:1011E0008894262F7111212F8D0D122F002C8BB872
:1011F00000C017FF3BB960812227889400C000C05F
:10120000002C3BB96111690F00C0002C8BB800C0E5
:1012100016FF3BB908F46FEF9195889400C000C0A9
:10122000002C3BB9F0FC260F00C0002C8BB800C08E
:1012300015FF3BB927958894F1FC260F00C000C02C
:10124000002C3BB92795889400C0002C8BB800C0B7
:1012500014FF3BB9F2FC260F2795889400C000C00C
:10126000002C3BB9F3FC260F00C0002C8BB800C04B
:1012700013FF3BB927958894F4FC260F00C000C0EB
:10128000002C3BB92795889400C0002C8BB800C077
:1012900012FF3BB9F5FC260F2795889400C000C0CB
:1012A000002C3BB9F6FC260F00C0002C8BB800C008
:1012B00011FF3BB927958894F7FC260F00C000C0AA
:1012C000002C3BB92795889400C0002C8BB800C037
:1012D00010FF3BB9162FF110122F9B0D00C000C05C
:1012E000002C3BB900C000C0002C8BB800C017FF19
:1012F0003BB962812227889400C000C0002C3BB912
:101300006111690D00C0002C8BB800C016FF3BB9FD
:1013100008F46FEFE40FF51F00C000C0002C3BB9CC
:10132000E0FC260F00C0002C8BB800C015FF3BB9B5
:1013300027958894E1FC260F00C000C0002C3BB923
:101340002795889400C0002C8BB800C014FF3BB9CF
:10135000E2FC260F2795889400C000C0002C3BB902
:10136000E3FC260F00C0002C8BB800C013FF3BB974
:1013700027958894E4FC260F00C000C0002C3BB9E0
:101380002795889400C0002C8BB800C012FF3BB991
:10139000E5FC260F2795889400C000C0002C3BB9BF
:1013A000E6FC260F00C0002C8BB800C011FF3BB933
:1013B00027958894E7FC260F00C000C0002C3BB99D
:1013C0002795889400C0002C8BB800C010FF3BB953
:1013D000162FE110122F919400C000C0002C3BB9D1
:1013E0009A0C00C000C08BB800C017FF3BB96181E8
:1013F0002227889400C000C0002C3BB96111680FFF
:1014000000C0002C8BB800C016FF3BB908F46FEF8A
:101410008195889400C000C0002C3BB970FD260F58
:1014200000C0002C8BB800C015FF3BB927958894ED
:1014300071FD260F00C000C0002C3BB92795889491
:1014400000C0002C8BB800C014FF3BB972FD260F02
:101450002795889400C000C0002C3BB973FD260F6F
:1014600000C0002C8BB800C013FF3BB927958894AF
:1014700074FD260F00C000C0002C3BB9279588944E
:1014800000C0002C8BB800C012FF3BB975FD260FC1
:101490002795889400C000C0002C3BB976FD260F2C
:1014A00000C0002C8BB800C011FF3BB92795889471
:1014B00077FD260F00C000C0002C3BB9279588940B
:1014C00000C0002C8BB800C010FF3BB9162F711163
:1014D000122F8D0D00C000C0002C3BB9119709F0F0
:1014E00086CEEA81FB812EE130E0DF010E94A63743
:1014F00030E020E0A901AAE9EA9F0E0E411DFA9F03
:10150000400D511D11244F0F511D7B018C01E40E24
:10151000F51E011D111DB801A701493E03E050074A
:101520006105710508F435C0485E534061097109D1
:1015300082E076956795579547958A95D1F7C901C9
:1015400027E0429F040E811D529F800D911D1124A2
:10155000850F911D2091F60230E0420F531F840F3A
:10156000951F40917B0350917C0360917D037091A6
:101570007E03292F3327420F531F611D711D409396
:101580007B0350937C0360937D0370937E03809371
:10159000F6027894C201DF91CF911F910F91FF90D5
:1015A000EF90DF90CF90BF90AF909F908F907F9003
:1015B0005F904F900C94700880E991E00895539AE1
:1015C00008954F925F927F928F929F92AF92BF92B7
:1015D000CF92DF92EF92FF920F931F93CF93DF93FF
:1015E000EB0146962C010E947A08F8948A819B812F
:1015F000181619060CF0CDC1E881F9816BB1862E61
:10160000689486F83BB13F7B3BB9DA848F81ED2C3F
:10161000E81A8E2DEF824C85042E000C550BAA8102
:10162000BB817889FF84E9887F5FF394E3949E818E
:101630009884B984AB841181C12C2C2D0C2D6C2D78
:101640006181112788946111680F08F46FEF81950B
:10165000889470FD160F1795889471FD160F1795D5
:10166000889472FD160F1795889473FD160F1795C1
:10167000889474FD160F1795889475FD160F1795AD
:10168000889476FD160F1795889477FD160F179599
:101690008894262F7111212F8D0D122F002C8BB8BD
:1016A00000C017FF3BB960812227889400C000C0AA
:1016B000002C3BB96111690F00C0002C8BB800C031
:1016C00016FF3BB908F46FEF9195889400C000C0F5
:1016D000002C3BB9F0FC260F00C0002C8BB800C0DA
:1016E00015FF3BB927958894F1FC260F00C000C078
:1016F000002C3BB92795889400C0002C8BB800C003
:1017000014FF3BB9F2FC260F2795889400C000C057
:10171000002C3BB9F3FC260F00C0002C8BB800C096
:1017200013FF3BB927958894F4FC260F00C000C036
:10173000002C3BB92795889400C0002C8BB800C0C2
:1017400012FF3BB9F5FC260F2795889400C000C016
:10175000002C3BB9F6FC260F00C0002C8BB800C053
:1017600011FF3BB927958894F7FC260F00C000C0F5
:10177000002C3BB92795889400C0002C8BB800C082
:1017800010FF3BB9162FF110122F9B0D00C000C0A7
:10179000002C3BB900C000C0002C8BB800C017FF64
:1017A0003BB962812227889400C000C0002C3BB95D
:1017B0006111690D00C0002C8BB800C016FF3BB949
:1017C00008F46FEFE40FF51F00C000C0002C3BB918
:1017D000E0FC260F00C0002C8BB800C015FF3BB901
:1017E00027958894E1FC260F00C000C0002C3BB96F
:1017F0002795889400C0002C8BB800C014FF3BB91B
:10180000E2FC260F2795889400C000C0002C3BB94D
:10181000E3FC260F00C0002C8BB800C013FF3BB9BF
:1018200027958894E4FC260F00C000C0002C3BB92B
:101830002795889400C0002C8BB800C012FF3BB9DC
:10184000E5FC260F2795889400C000C0002C3BB90A
:10185000E6FC260F00C0002C8BB800C011FF3BB97E
:1018600027958894E7FC260F00C000C0002C3BB9E8
:101870002795889400C0002C8BB800C010FF3BB99E
:10188000162FE110122F919400C000C0002C3BB91C
:101890009A0C00C000C08BB800C017FF3BB9618133
:1018A0002227889400C000C0002C3BB96111680F4A
:1018B00000C0002C8BB800C016FF3BB908F46FEFD6
:1018C0008195889400C000C0002C3BB970FD260FA4
:1018D00000C0002C8BB800C015FF3BB92795889439
:1018E00071FD260F00C000C0002C3BB927958894DD
:1018F00000C0002C8BB800C014FF3BB972FD260F4E
:101900002795889400C000C0002C3BB973FD260FBA
:1019100000C0002C8BB800C013FF3BB927958894FA
:1019200074FD260F00C000C0002C3BB92795889499
:1019300000C0002C8BB800C012FF3BB975FD260F0C
:101940002795889400C000C0002C3BB976FD260F77
:1019500000C0002C8BB800C011FF3BB927958894BC
:1019600077FD260F00C000C0002C3BB92795889456
:1019700000C0002C8BB800C010FF3BB9162F7111AE
:10198000122F8D0D00C000C0002C3BB9119709F03B
:1019900086CEEA81FB812EE130E0DF010E94A6378E
:1019A00030E020E0A901AAE9EA9F0E0E411DFA9F4E
:1019B000400D511D11244F0F511D7B018C01E40E70
:1019C000F51E011D111DB801A701493E03E0500796
:1019D0006105710508F435C0485E5340610971091D
:1019E00082E076956795579547958A95D1F7C90115
:1019F00027E0429F040E811D529F800D911D1124EE
:101A0000850F911D2091F60230E0420F531F840F85
:101A1000951F40917B0350917C0360917D037091F1
:101A20007E03292F3327420F531F611D711D4093E1
:101A30007B0350937C0360937D0370937E038093BC
:101A4000F6027894C201DF91CF911F910F91FF9020
:101A5000EF90DF90CF90BF90AF909F908F907F904E
:101A60005F904F900C947008569A08954F925F9231
:101A70007F928F929F92AF92BF92CF92DF92EF921E
:101A8000FF920F931F93CF93DF93EB0146962C01A8
:101A90000E947A08F8948A819B81181619060CF026
:101AA000CDC1E881F9816BB1862E689487F83BB18E
:101AB0003F773BB9DA848F81ED2CE81A8E2DEF82C7
:101AC0004C85042E000C550BAA81BB817889FF84BC
:101AD000E9887F5FF394E3949E819884B984AB8412
:101AE0001181C12C2C2D0C2D6C2D61811127889416
:101AF0006111680F08F46FEF8195889470FD160FDF
:101B00001795889471FD160F1795889472FD160F1E
:101B10001795889473FD160F1795889474FD160F0A
:101B20001795889475FD160F1795889476FD160FF6
:101B30001795889477FD160F17958894262F7111A5
:101B4000212F8D0D122F002C8BB800C017FF3BB931
:101B500060812227889400C000C0002C3BB961112D
:101B6000690F00C0002C8BB800C016FF3BB908F409
:101B70006FEF9195889400C000C0002C3BB9F0FC39
:101B8000260F00C0002C8BB800C015FF3BB927956D
:101B90008894F1FC260F00C000C0002C3BB92795AB
:101BA000889400C0002C8BB800C014FF3BB9F2FC35
:101BB000260F2795889400C000C0002C3BB9F3FC89
:101BC000260F00C0002C8BB800C013FF3BB927952F
:101BD0008894F4FC260F00C000C0002C3BB9279568
:101BE000889400C0002C8BB800C012FF3BB9F5FCF4
:101BF000260F2795889400C000C0002C3BB9F6FC46
:101C0000260F00C0002C8BB800C011FF3BB92795F0
:101C10008894F7FC260F00C000C0002C3BB9279524
:101C2000889400C0002C8BB800C010FF3BB9162F61
:101C3000F110122F9B0D00C000C0002C3BB900C05A
:101C400000C0002C8BB800C017FF3BB9628122276F
:101C5000889400C000C0002C3BB96111690D00C020
:101C6000002C8BB800C016FF3BB908F46FEFE40FEF
:101C7000F51F00C000C0002C3BB9E0FC260F00C0DF
:101C8000002C8BB800C015FF3BB927958894E1FC68
:101C9000260F00C000C0002C3BB92795889400C0D7
:101CA000002C8BB800C014FF3BB9E2FC260F27952F
:101CB000889400C000C0002C3BB9E3FC260F00C094
:101CC000002C8BB800C013FF3BB927958894E4FC27
:101CD000260F00C000C0002C3BB92795889400C097
:101CE000002C8BB800C012FF3BB9E5FC260F2795EE
:101CF000889400C000C0002C3BB9E6FC260F00C051
:101D0000002C8BB800C011FF3BB927958894E7FCE5
:101D1000260F00C000C0002C3BB92795889400C056
:101D2000002C8BB800C010FF3BB9162FE110122F0A
:101D3000919400C000C0002C3BB99A0C00C000C0B8
:101D40008BB800C017FF3BB961812227889400C07F
:101D500000C0002C3BB96111680F00C0002C8BB88B
:101D600000C016FF3BB908F46FEF8195889400C05E
:101D700000C0002C3BB970FD260F00C0002C8BB8B2
:101D800000C015FF3BB92795889471FD260F00C050
:101D900000C0002C3BB92795889400C0002C8BB85C
:101DA00000C014FF3BB972FD260F2795889400C030
:101DB00000C0002C3BB973FD260F00C0002C8BB86F
:101DC00000C013FF3BB92795889474FD260F00C00F
:101DD00000C0002C3BB92795889400C0002C8BB81C
:101DE00000C012FF3BB975FD260F2795889400C0EF
:101DF00000C0002C3BB976FD260F00C0002C8BB82C
:101E000000C011FF3BB92795889477FD260F00C0CD
:101E100000C0002C3BB92795889400C0002C8BB8DB
:101E200000C010FF3BB9162F7111122F8D0D00C08D
:101E300000C0002C3BB9119709F086CEEA81FB81E6
:101E40002EE130E0DF010E94A63730E020E0A9015A
:101E5000AAE9EA9F0E0E411DFA9F400D511D112463
:101E60004F0F511D7B018C01E40EF51E011D111D4C
:101E7000B801A701493E03E050076105710508F468
:101E800035C0485E53406109710982E076956795D7
:101E9000579547958A95D1F7C90127E0429F040ECF
:101EA000811D529F800D911D1124850F911D209140
:101EB000F60230E0420F531F840F951F40917B03C1
:101EC00050917C0360917D0370917E03292F33270D
:101ED000420F531F611D711D40937B0350937C0380
:101EE00060937D0370937E038093F6027894C20121
:101EF000DF91CF911F910F91FF90EF90DF90CF90E6
:101F0000BF90AF909F908F907F905F904F900C9478
:101F10007008579A08954F925F927F928F929F9286
:101F2000AF92BF92CF92DF92EF92FF920F931F93E7
:101F3000CF93DF93EB0146962C010E947A08F89428
:101F40008A819B81181619060CF0CDC1E881F981B0
:101F500065B1862E689480F835B13E7F35B9DA8454
:101F60008F81ED2CE81A8E2DEF824C85042E000C0B
:101F7000550BAA81BB817889FF84E9887F5FF39440
:101F8000E3949E819884B984AB841181C12C2C2D5B
:101F90000C2D6C2D6181112788946111680F08F454
:101FA0006FEF8195889470FD160F1795889471FDD9
:101FB000160F1795889472FD160F1795889473FD68
:101FC000160F1795889474FD160F1795889475FD54
:101FD000160F1795889476FD160F1795889477FD40
:101FE000160F17958894262F7111212F8D0D122F02
:101FF000002C85B800C017FF35B96081222788946E
:1020000000C000C0002C35B96111690F00C0002C60
:1020100085B800C016FF35B908F46FEF9195889424
:1020200000C000C0002C35B9F0FC260F00C0002C09
:1020300085B800C015FF35B927958894F1FC260FA7
:1020400000C000C0002C35B92795889400C0002C32
:1020500085B800C014FF35B9F2FC260F2795889487
:1020600000C000C0002C35B9F3FC260F00C0002CC6
:1020700085B800C013FF35B927958894F4FC260F66
:1020800000C000C0002C35B92795889400C0002CF2
:1020900085B800C012FF35B9F5FC260F2795889446
:1020A00000C000C0002C35B9F6FC260F00C0002C83
:1020B00085B800C011FF35B927958894F7FC260F25
:1020C00000C000C0002C35B92795889400C0002CB2
:1020D00085B800C010FF35B9162FF110122F9B0DD7
:1020E00000C000C0002C35B900C000C0002C85B86D
:1020F00000C017FF35B962812227889400C000C054
:10210000002C35B96111690D00C0002C85B800C0E4
:1021100016FF35B908F46FEFE40FF51F00C000C0DB
:10212000002C35B9E0FC260F00C0002C85B800C09B
:1021300015FF35B927958894E1FC260F00C000C033
:10214000002C35B92795889400C0002C85B800C0B4
:1021500014FF35B9E2FC260F2795889400C000C013
:10216000002C35B9E3FC260F00C0002C85B800C058
:1021700013FF35B927958894E4FC260F00C000C0F2
:10218000002C35B92795889400C0002C85B800C074
:1021900012FF35B9E5FC260F2795889400C000C0D2
:1021A000002C35B9E6FC260F00C0002C85B800C015
:1021B00011FF35B927958894E7FC260F00C000C0B1
:1021C000002C35B92795889400C0002C85B800C034
:1021D00010FF35B9162FE110122F919400C000C0E6
:1021E000002C35B99A0C00C000C085B800C017FF9C
:1021F00035B961812227889400C000C0002C35B910
:102200006111680F00C0002C85B800C016FF35B9F9
:1022100008F46FEF8195889400C000C0002C35B998
:1022200070FD260F00C0002C85B800C015FF35B921
:102230002795889471FD260F00C000C0002C35B989
:102240002795889400C0002C85B800C014FF35B9CC
:1022500072FD260F2795889400C000C0002C35B968
:1022600073FD260F00C0002C85B800C013FF35B9E0
:102270002795889474FD260F00C000C0002C35B946
:102280002795889400C0002C85B800C012FF35B98E
:1022900075FD260F2795889400C000C0002C35B925
:1022A00076FD260F00C0002C85B800C011FF35B99F
:1022B0002795889477FD260F00C000C0002C35B903
:1022C0002795889400C0002C85B800C010FF35B950
:1022D000162F7111122F8D0D00C000C0002C35B9C2
:1022E000119709F086CEEA81FB812EE130E0DF0113
:1022F0000E94A63730E020E0A901AAE9EA9F0E0E6D
:10230000411DFA9F400D511D11244F0F511D7B019E
:102310008C01E40EF51E011D111DB801A701493EF7
:1023200003E050076105710508F435C0485E53406D
:102330006109710982E076956795579547958A9569
:10234000D1F7C90127E0429F040E811D529F800DE5
:10235000911D1124850F911D2091F60230E0420F4E
:10236000531F840F951F40917B0350917C03609114
:102370007D0370917E03292F3327420F531F611D68
:10238000711D40937B0350937C0360937D03709396
:102390007E038093F6027894C201DF91CF911F9162
:1023A0000F91FF90EF90DF90CF90BF90AF909F90F4
:1023B0008F907F905F904F900C94700881E090E038
:1023C0000895209A08950895FC01778366830895FF
:1023D000DC01FB016C9111964C91119712967C9146
:1023E000262F220F220F220F95E5822F899F080E9C
:1023F00080E0811D1124562F5074362F307267FDF6
:1024000060C0511149C0311106C0982F9095282FF6
:10241000892F90E004C025E5280F90E08BEA4F3F1C
:10242000F1F0442309F46CC0409530E0442329F0D6
:10243000449F312D112441113F5F432F4095849FCC
:10244000080E80E0811D249F020E20E0211D949F34
:10245000090E90E0911D1124830F230F930F7F3FEE
:10246000B9F030E0772321F0779F312D09F03F5FFD
:10247000332309F449C0839F080E80E0811D239F08
:10248000020E20E0211D939F090E90E0911D112462
:10249000808321839283089531110DC0922F2AEAFF
:1024A000929F090E90E0911D11242BEA291B922F77
:1024B0002AEA280FADCF90E0282F2095982F80E0B2
:1024C000AECF511111C031110BC0922F8AEA989FE3
:1024D000090E90E0911D11242BEA291B9B5AEFCF86
:1024E000982F909520E09BCF311106C025E5280F4D
:1024F0009BEA981B822FF6CF2AEA280F30E0F9CF0B
:102500009FEF2FEF8FEFABCF90E020E080E0C0CFC8
:10251000AF92BF92CF92DF92EF92FF920F931F93F1
:10252000CF93DF9300D01F92CDB7DEB75A01198247
:102530001A821B82882361F18B01E1E0F0E0E82E32
:10254000F12CD8012D918D012223F1F06F01B1E022
:10255000CB1AD108D501AC0DBD1D4C914423A1F07F
:1025600030E02F5F3F4FD7010E946D37A42FB0E0BE
:1025700011969B01AC010E940137A1E0B0E0AC0FC5
:10258000BD1FAC0DBD1D8C933196E430F105C9F62D
:1025900069817A818B810F900F900F90DF91CF919D
:1025A0001F910F91FF90EF90DF90CF90BF90AF9071
:1025B00008956F927F928F92CF92DF92EF92FF9267
:1025C0000F931F93CF93DF93CDB7DEB762970FB60C
:1025D000F894DEBF0FBECDBF8C016B017A01822F54
:1025E000A801475F5F4FB8016A5F7F4F0E94881262
:1025F0003B01882ED8011C962C91C701F7FE04C020
:10260000882799278E199F09DA82C9829C838B8338
:102610009E838D83688A798A8A8A213049F5CE0122
:1026200001960E94330883E08D871F861E86F7FE81
:1026300002C08DEF8D87D801ED91FC910088F18962
:10264000E02DBE016F5F7F4FC801099562960FB6FE
:10265000F894DEBF0FBECDBFDF91CF911F910F91D8
:10266000FF90EF90DF90CF908F907F906F900895C4
:102670001C861B861A86198618861F82D4CFCF9295
:10268000DF92EF92FF920F931F93CF93DF93CDB71B
:10269000DEB762970FB6F894DEBF0FBECDBF8C01D8
:1026A0006B017A01822FA801475F5F4FB8016A5F13
:1026B0007F4F0E9488129B01482FD8011C968C9155
:1026C000DA82C982FC82EB82FE82ED82288B398B12
:1026D0004A8B813009F5CE0101960E9433081D8690
:1026E0001F861E86D801ED91FC910088F189E02DAE
:1026F000BE016F5F7F4FC801099562960FB6F894CF
:10270000DEBF0FBECDBFDF91CF911F910F91FF9024
:10271000EF90DF90CF9008951C861B861A8619864D
:1027200018861F82DCCFFC0130E020E02617370737
:10273000B9F08081849F080E80E0811D80838181B3
:10274000849F080E80E0811D81838281849F080E12
:1027500080E0811D828311242F5F3F4F3396E6CFA7
:102760000895FC0180E191E09183808313821282BD
:102770008FEF86838783808781878287838781E045
:10278000848785871786168680E797E1918B808BF3
:1027900083E090E0938B828B158A148A15821482D1
:1027A0008091F4029091F502892B21F4F093F502C7
:1027B000E093F402A091F202B091F302109721F09D
:1027C0001596FC93EE931497F093F302E093F202C4
:1027D000089590E080E00895FC0164870895FC016D
:1027E000848590E00895FC01868597850895262FBD
:1027F000DC011D963C911D97332371F01E964D917F
:102800005C911F9712966D917C911397ED91FC91BD
:102810000280F381E02D09940895FC01668F84A560
:1028200095A50C94F713DC0130E020E095968D918E
:102830009C9196972817390788F4C901880F991F2A
:10284000820F931F9796ED91FC919897E80FF91FCF
:102850001082118212822F5F3F4FE8CF5E966C91FB
:102860005E979C968D919C910C94F713DC0130E05F
:1028700020E08FEF95964D915C9196972417350740
:1028800088F4A901440F551F420F531F9796ED91ED
:10289000FC919897E40FF51F8083818382832F5FDB
:1028A0003F4FE8CF5E966C915E979C968D919C9180
:1028B0000C94F713CF93DF93FC0146A767A74F3023
:1028C00014F08EE086A786A587FD16A66F3014F05B
:1028D0008EE087A787A587FD17A630E020E090E06F
:1028E00080E050E84FEFA7A1B0A5A20FB31F66A5E7
:1028F000062E000C770B1C926817790734F5119699
:102900001C92119712961C92B901665D7F4FA7A188
:10291000B0A5A60FB71FC7A50C2E000CDD0B1C928F
:10292000C817D90764F511961C92119712961C923C
:1029300001962D5F3F4F8E309105A9F6668D84A5D7
:1029400095A5DF91CF910C94F71311965C93119795
:1029500012961C92682F863050F0A7A1B0A5A20F46
:10296000B31F4C9311964C93119712961C926B3097
:1029700058F2A7A1B0A5A20FB31F4C93C0CF1196D8
:102980005C93119712961C92863090F2C7A1D0A545
:10299000C60FD71F488349831A828B3048F2A7A1FC
:1029A000B0A5A60FB71F4C93BECF2F923F924F9268
:1029B0005F926F927F928F929F92AF92BF92CF92CF
:1029C000DF92EF92FF920F931F93CF93DF9300D08C
:1029D00000D000D0CDB7DEB78C01FC0165A176A197
:1029E0004BEE87A190A50E949313412C77E0572EC0
:1029F000612C712C312CAA24AA94E7E0BE2E212C44
:102A00003C82F8ECFD832FEF2E83BE016F5F7F4F7A
:102A1000CE0104960E94E811F80187A090A4E5A0D9
:102A2000F6A0F1E0EF1AF1080E94C5029B01AC018B
:102A3000A8E1B1E00E9401379B01AC01C301B201E2
:102A40000E947C37AC0166277727CA0163E0969520
:102A500087956A95E1F797709A0122273074232BA6
:102A600021F09501281B390BC901E92FEE0FEE0F5C
:102A7000F0E0E85DFE4FC080D1808695928196019E
:102A8000899F200D311D112457FF03C031952195D9
:102A9000310930582E9DC0013F9DD0013E9D900DC3
:102AA000A11DB21D2F9D900DA11DB21D1124820FDD
:102AB000931FA21DB21DCD01AA27BB27FC01EE0F5B
:102AC000FF1FE80FF91FE80DF91D89819081981704
:102AD00008F480838A819181981708F481838B811F
:102AE0009281981708F4828330E2330E8FEF581AE0
:102AF000680A780A4114EFE05E066104710409F087
:102B00007FCFF801668D84A595A50E94F7132696C0
:102B10000FB6F894DEBF0FBECDBFDF91CF911F91EE
:102B20000F91FF90EF90DF90CF90BF90AF909F906C
:102B30008F907F906F905F904F903F902F9008956F
:102B4000CF93DF93EC010E94C5029B01AC0160E0D2
:102B500070ED83E490E00E947C37892F0E94F3049B
:102B600091EF899F080E80E0811D1124825F282F3C
:102B700030E0AEE0B0E00E946D372FEF30E040E093
:102B800050E00E94E23680E033E0A0E89FEF482F5B
:102B900050E06DA17EA1769567954617570708F01E
:102BA0008AC08630E8F4EFA1F8A5839FE00DF11DFF
:102BB000112410828217C0F5A18312826DA17EA11B
:102BC00076956795640F751FFB01EE0FFF1F6E0F63
:102BD0007F1FEFA1F8A5E60FF71F1082A1831282D5
:102BE0006AEF680F6530A0F5EFA1F8A5839FE00DAF
:102BF000F11D1124281708F44AC090839183128292
:102C00006DA17EA176956795460F571FFA01EE0FCD
:102C1000FF1F4E0F5F1FEFA1F8A5E40FF51F908374
:102C2000918312828F5FB3CF118212826DA17EA138
:102C300076956795640F751FFB01EE0FFF1F6E0FF2
:102C40007F1FEFA1F8A5E60FF71F10821182C7CFF3
:102C50008B3040F3EFA1F8A5839FE00DF11D112407
:102C60002817A8F09083118212826DA17EA176951B
:102C70006795460F571FFA01EE0FFF1F4E0F5F1F9C
:102C8000EFA1F8A5E40FF51F90831182CACF10823F
:102C9000118212826DA17EA176956795460F571F0E
:102CA000FA01EE0FFF1F4E0F5F1FEFA1F8A5E40F13
:102CB000F51F1082EACF6E8D8CA59DA5DF91CF9177
:102CC0000C94F713FC0180E093E0A7A1B0A525A127
:102CD00036A18217130660F4899FA00DB11D11243F
:102CE0001C9211961C92119712961C928F5FEDCF39
:102CF000868593E0899FA00DB11D112421A532A5E1
:102D000043A52D933D934C9390898685992379F023
:102D10008F5F868725A136A18217130618F0108AC7
:102D200021502687668D84A595A50C94F7138111F3
:102D300003C081E0808BF6CF81508687F3CFCF939D
:102D4000DF93EC016DA17EA146EE8FA198A50E94B4
:102D500093136E8D8CA59DA5DF91CF910C94F713E5
:102D60000F931F93CF93DF9300D01F92CDB7DEB7A1
:102D70008C01FC0184A1885F84A389838FEF8A83FF
:102D800080EC8B83868567A170A5F3E08F9F600D33
:102D9000711D1124CE0101960E94E811F80190895D
:102DA00086859923C1F08F5F868725A136A182177A
:102DB000130618F0108A21502687F801668D84A525
:102DC00095A50E94F7130F900F900F90DF91CF9170
:102DD0001F910F910895811103C081E0808BEDCF89
:102DE00081508687EACFFC018685A7A1B0A593E034
:102DF000899FA00DB11D112421A532A543A52D93B6
:102E00003D934C9390898685992379F08F5F8687CF
:102E100025A136A18217130618F0108A21502687A3
:102E2000668D84A595A50C94F713811103C081E0EC
:102E3000808BF6CF81508687F3CFFC0180E093E052
:102E4000A7A1B0A525A136A18217130660F4899F1A
:102E5000A00DB11D11241C9211961C92119712966F
:102E60001C928F5FEDCF868593E0899FA00DB11DE9
:102E7000112421A532A543A52D933D934C93908910
:102E80008685992379F08F5F868725A136A18217E1
:102E9000130618F0108A21502687668D84A595A503
:102EA0000C94F713811103C081E0808BF6CF815021
:102EB0008687F3CFCF93DF93FC0190E080E0A7A15A
:102EC000B0A5A80FB91F1C9211961C9211971296CB
:102ED0001C9203968C33910591F786A58823F1F017
:102EE000A7A1B0A5DC961C92DC97DD961C92DD971D
:102EF000DE961C92C7A1D0A5DE01DF961FAE11960B
:102F00001C92119712961C92A7A1B0A5AE5BBF4F61
:102F10001C9211961C92119712961C92668D84A594
:102F200095A5DF91CF910C94F713CF93DF93FC011C
:102F300030E020E08FEFA7A1B0A5A20FB31F8C93C4
:102F400011961C92119712961C922D5F3F4F2C33B5
:102F5000310589F796A59923F9F0A7A1B0A5DC96CC
:102F60001C92DC9790E8DD969C93DD97DE961C9290
:102F7000C7A1D0A5DE01DF968FAF11968C93119774
:102F800012961C92A7A1B0A5AE5BBF4F8C93119671
:102F90001C92119712961C92668D84A595A5DF91BF
:102FA000CF910C94F713CF93DF93EC0145EF64E1DD
:102FB00070E08FA198A50E9493136E8D8CA59DA59E
:102FC000DF91CF910C94F713CF92DF92EF920F9392
:102FD0001F93CF93DF93EC018EA5882309F44EC095
:102FE0008FA5882309F44AC0CE01C0960E9413051C
:102FF000FE01E05CFF4F208131814281538168AD49
:1030000079AD8AAD9BAD0E94A038EFA1F8A514AEB2
:1030100087FD7EC080E885AF16AE0FA118A5FE0122
:10302000EC5BFF4F208131814281538168AD79ADE6
:103030008AAD9BAD0E94A038F801FF9687FD6AC05B
:103040008FEFD801DF968C93818312820FA118A590
:10305000FE01E85BFF4F208131814281538168ADE1
:1030600079AD8AAD9BAD0E94A038F801EE5BFF4FB1
:1030700087FD55C08FEF8083118212828E8581116A
:103080001E8650E040E030E020E061E070E0EE8538
:10309000B4E0EB9FF0011124E20FF31FE551FE4F66
:1030A000E49187E090E0DB01082E01C0AA0F0A94AA
:1030B000EAF7AE2399F08A01081B190BD801AA0F71
:1030C000BB1F0A0F1B1FAFA1B8A5A00FB11FC9A43A
:1030D000DAA4EBA45596CD92DD92EC920197823062
:1030E000910509F72F5F3F4F4B5F5F4F243031054C
:1030F00071F68E858F5F8E876E8D8CA59DA5DF9175
:10310000CF911F910F91EF90DF90CF900C94F71318
:1031100015AE82CFD801DF961C92118296CF108215
:10312000ABCFCF92DF92EF92FF920F931F93CF938B
:10313000DF9300D01F92CDB7DEB77C01FC0184A1E4
:103140008F5F84A327A190A589838FEF8B8380EF66
:103150008A83022F192F6801FCE3CF0ED11CB8011E
:10316000CE0101960E94E8118981895F89830D5FF4
:103170001F4F0C151D0599F7F701668D84A595A5C0
:103180000E94F7130F900F900F90DF91CF911F9136
:103190000F91FF90EF90DF90CF900895EF92FF9204
:1031A0000F931F93CF93DF9300D000D000D0CDB703
:1031B000DEB78C01809100019091010145E058E05B
:1031C000849F7001859FF00C949FF00C112437EEC2
:1031D000E31A39ECF30AD80194962C9194972F5F57
:1031E00094962C93E49EC001E59E900DF49E900D64
:1031F0001124875E994C9093010180930001890FFF
:10320000B0E48B9FC0011124290F2C8388EC8D839F
:103210008FEF8E83BE016F5F7F4FCE0104960E94B9
:10322000E8119701A4E1B0E00E946D37AA27BB27FF
:10323000FC01EE0FFF1FE80FF91FD80197968D9143
:103240009C91E80FF91F99818081890F08F48FEF15
:1032500080839A818181890F08F48FEF81839B811C
:103260008281890F08F48FEF8283F801668D84A52F
:1032700095A50E94F71326960FB6F894DEBF0FBEF1
:10328000CDBFDF91CF911F910F91FF90EF900895E7
:10329000CF93DF93EC01409100015091010185E053
:1032A00098E0489F9001499F300D589F300D1124A0
:1032B000275E394C3093010120930001A4E1B0E076
:1032C0000E946D37AA27BB27FC01EE0FFF1FE80FF6
:1032D000F91F8FA198A5E80FF91F8FEF8083118246
:1032E00012826E8D8CA59DA5DF91CF910C94F71362
:1032F0000F931F93CF93DF93EC018EA5882309F4DE
:103300004EC08FA5882309F44AC0CE01C0960E9402
:103310001305FE01E05CFF4F208131814281538122
:1033200068AD79AD8AAD9BAD0E94A038EFA1F8A53C
:1033300014AE87FD5DC080E885AF16AE0FA118A55D
:10334000FE01EC5BFF4F208131814281538168ADEA
:1033500079AD8AAD9BAD0E94A038F801FF9687FD3C
:1033600049C08FEFD801DF968C93818312820FA121
:1033700018A5FE01E85BFF4F208131814281538116
:1033800068AD79AD8AAD9BAD0E94A038F801EE5BC7
:10339000FF4F87FD34C08FEF8083118212828E85AC
:1033A000833008F01E8610E000E0EE85B4E0EB9F6D
:1033B000F0011124E00FF11FE152FE4F4491E8812A
:1033C000F9810488F589E02D602FCE0109950F5F02
:1033D0001F4F0430110549F78E858F5F8E876E8DE4
:1033E0008CA59DA5DF91CF911F910F910C94F713A0
:1033F00015AEA3CFD801DF961C921182B7CF1082F1
:10340000CCCF0F931F93CF93DF93EC018EA588232E
:1034100009F468C08FA5882309F464C0CE01C09662
:103420000E9413052CAD3DAD4EAD5FAD68AD79ADDD
:103430008AAD9BAD0E94A03887FF08C0E881F98162
:103440000088F189E02D61E0CE0109950FA118A552
:10345000FE01E05CFF4F208131814281538168ADE4
:1034600079AD8AAD9BAD0E94A03887FD64C0D801BC
:10347000DC961C92DC9780E8DD968C93DD97DE96D7
:103480001C920FA118A5FE01EC5BFF4F208131813A
:103490004281538168AD79AD8AAD9BAD0E94A03861
:1034A000F801FF9687FD4CC08FEFD801DF968C9313
:1034B000818312820FA118A5FE01E85BFF4F2081D6
:1034C00031814281538168AD79AD8AAD9BAD0E9457
:1034D000A038F801EE5BFF4F87FD37C08FEF808388
:1034E000118212828E858A3008F01E8610E000E07C
:1034F000EE85B4E0EB9FF0011124E00FF11FE954D9
:10350000FE4F4491E881F9810488F589E02D602F10
:10351000CE0109950F5F1F4F0430110549F78E85C5
:103520008F5F8E876E8D8CA59DA5DF91CF911F91AA
:103530000F910C94F713F80114AE15AE16AEA1CF8F
:10354000D801DF961C921182B4CF1082C9CF0F939D
:103550001F93CF93DF93EC018EA5882309F468C0F5
:103560008FA5882309F464C0CE01C0960E9413057C
:103570002CAD3DAD4EAD5FAD68AD79AD8AAD9BADC7
:103580000E94A03887FD08C0E881F9810088F18990
:10359000E02D68E0CE0109950FA118A5FE01E05CC1
:1035A000FF4F208131814281538168AD79AD8AAD71
:1035B0009BAD0E94A03887FD83C0D801DC961C9289
:1035C000DC9780E8DD968C93DD97DE961C920FA148
:1035D00018A5FE01EC5BFF4F2081318142815381B0
:1035E00068AD79AD8AAD9BAD0E94A038F801FF9619
:1035F00087FD6BC08FEFD801DF968C938183128299
:103600000FA118A5FE01E85BFF4F208131814281A7
:10361000538168AD79AD8AAD9BAD0E94A038F801A9
:10362000EE5BFF4F87FD56C08FEF808311821282C1
:103630008E858C3108F01E8610E000E0EE85B4E047
:10364000EB9FF0011124E00FF11FE95BFE4F449165
:10365000E881F9810488F589E02D602FCE01099574
:103660000F5F1F4F0430110549F78EA5882309F419
:1036700043C08FA5811140C0EE85E150EA3108F0CA
:103680003BC0F0E0EA5BF44E0C94A037971B7C1B28
:10369000971B7C1B9D1B7C1B971B7C1B7C1B6C1B2B
:1036A0007C1B881B7C1B9D1B7C1B971B7C1B9D1BF9
:1036B0007C1B971B7C1B971B7C1B971B7C1B9D1BE0
:1036C000F80114AE15AE16AE82CFD801DF961C926B
:1036D000118295CF1082AACFEFA1F8A5EE5BFF4F24
:1036E0008FEF808311821282AFA1B8A5FD01FF96F2
:1036F000DF968C93818312828E858F5F8E876E8D8D
:103700008CA59DA5DF91CF911F910F910C94F7137C
:10371000EFA1F8A5EE5BFF4F108211821282AFA1DC
:10372000B8A5FD01FF96DF961C921182E4CFEFA1B0
:10373000F8A5EE5BFF4F1082F8CFEFA1F8A5EE5B86
:10374000FF4F8FEF8083F1CF362F32953F70262FBA
:103750002F70DC01E32FEE0FE30FE80FF92FF11DBF
:10376000608171818281222309F42BC03F3011F0E6
:10377000DF0113962295207F322F3095639F060E2E
:1037800060E0611D9C91929F090E90E0911D690F70
:10379000739F070E70E0711D11969C911197929F77
:1037A000090E90E0911D790F982F939F090E90E0DC
:1037B000911D12968C91829F080E80E0811D890FC9
:1037C00011244F3FD1F04423A9F04F5F662321F02D
:1037D000649F060E60E0611D772321F0749F070E41
:1037E00070E0711D882321F0849F080E80E0811D08
:1037F0001124089580E070E060E008954F925F9298
:103800006F927F928F929F92AF92BF92CF92DF92F0
:10381000EF92FF920F931F93CF93DF93CDB7DEB755
:10382000E0970FB6F894DEBF0FBECDBF8C01DC0170
:1038300094968C9194978F5F94968C938FEE91E0F1
:10384000DE0111969E012F5C3F4F4D01FC01459119
:103850005591659174916C9311965C9311971296A2
:103860004C931297049613962A173B0779F70E94F8
:10387000C5029B01AC0160E070ED83E490E00E9422
:103880007C37892F0E94F30491EF899F080E80E016
:10389000811D11247EE0E72EE80EF12CEAE05E2E79
:1038A000F3E06F2EABE1CA2ED12CAF2CB12CF80176
:1038B00085A196A196958795A816B906B8F564A135
:1038C000F59C402C11247F2C770C4E2D461B440D6B
:1038D000670DC4010E94A41BD8019796ED91FC913D
:1038E0009897F69CE00DF11D11246083718382830B
:1038F00094966C914E2D461B440D670DC4010E9499
:10390000A41B9B01482FC6018A199B09FC01EE0FDD
:10391000FF1F8E0F9F1FD8019796ED91FC91E80F26
:10392000F91F208331834283F394BFCF668D84A532
:1039300095A50E94F713E0960FB6F894DEBF0FBE70
:10394000CDBFDF91CF911F910F91FF90EF90DF904E
:10395000CF90BF90AF909F908F907F906F905F902F
:103960004F9008954F925F926F927F928F929F92A5
:10397000AF92BF92CF92DF92EF92FF920F931F937D
:10398000CF93DF9300D0CDB7DEB77C0149832A8384
:10399000660FFC01ED5AFF4F0081000FFC018E2FD6
:1039A0008E19801710F41192FACF8981F701E60F72
:1039B000F11D81838A818083670182E5C80ED11C55
:1039C00060E0F60180810E9436020E0D1F2D111D50
:1039D0005701F1E5AF0EB11C470180E5880E911C3F
:1039E0000E151F05E9F0F80162908F01F501508076
:1039F000F401408088E0782E662D661F6627661FDA
:103A0000842D0E943602660C61E0852D0E943602EC
:103A100060E0852D0E9436027A947110EDCFE0CFE0
:103A200061E0F60180810F900F90DF91CF911F919F
:103A30000F91FF90EF90DF90CF90BF90AF909F904D
:103A40008F907F906F905F904F900C943602FC01A6
:103A5000262F668F84A195A166A1FC01ED5AFF4F28
:103A60003081631728F4203118F44AE00C94B21C1A
:103A700008951F93CF93DF93EC01162F6E8F8496DA
:103A80000E94271D612FCE01855B9F4F0E94271D3D
:103A9000612FCE018E589F4F0E94271D612FCE01AE
:103AA00084569F4F0E94271D612FCE018B539F4F3D
:103AB000DF91CF911F910C94271DEF92FF920F93EE
:103AC0001F93CF93DF937C01062FC62FCC0FCC0F13
:103AD000CC0FD0E06096C80FD91F10E019921F5F7D
:103AE00020E0412F602FC7010E94B21C1830B1F7AF
:103AF000DF91CF911F910F91FF90EF900895CF9399
:103B0000DF93EC018CA19DA16EA1FC01ED5AFF4F4A
:103B10002081621720F421E04CE00E94B21C8CA1AD
:103B20009DA16EA1FC01ED5AFF4F2081621710F498
:103B30000E945D1D81E0DF91CF9108957F928F9269
:103B40009F92AF92BF92CF92DF92EF92FF920F932C
:103B50001F93CF93DF93EC015C0184E2A80EB11CAC
:103B6000C5010E947F1D811110C0712C872DDF912E
:103B7000CF911F910F91FF90EF90DF90CF90BF906A
:103B8000AF909F908F907F9008956E018BE4C80E48
:103B9000D11CC6010E947F1D882339F37E0182E774
:103BA000E80EF11CC7010E947F1D8823F1F28E01EF
:103BB00004561F4FC8010E947F1D8823B1F24E0199
:103BC00085EC880E911CC4010E947F1D882369F238
:103BD000C451DF4FCE010E940704782E882329F2BA
:103BE0006FE0C5010E94271D6FE0C6010E94271DDE
:103BF0006FE0C7010E94271D6FE0C8010E94271DCA
:103C00006FE0C4010E94271D6AE0CE010E940D14DE
:103C1000ADCFFC01ED5AFF4F3081631778F4483087
:103C200068F4E62FEE0FEE0FEE0FE80FF92FF11DFF
:103C3000E40FF11D208B4F5F0C94B21C089520E01F
:103C400041E0FC0166A184A195A10C94091E2FEF0F
:103C500041E0FC0166A184A195A10C94091E20E01D
:103C600040E0FC0166A184A195A10C94091E2FEFF0
:103C700040E0FC0166A184A195A10C94091ECF939C
:103C8000DF93EC0120E044E06EA18CA19DA10E9495
:103C9000091E20E045E06EA18CA19DA1DF91CF918E
:103CA0000C94091ECF93DF93EC012FEF44E06EA13B
:103CB0008CA19DA10E94091E2FEF45E06EA18CA151
:103CC0009DA1DF91CF910C94091E242F462FFC015A
:103CD00066A184A195A10C94091E0F93DC01FC013F
:103CE000ED5AFF4F8081681710F5483000F5E0E885
:103CF000F0E0CF0102C0959587952A95E2F79C01E7
:103D0000E62FEE0FEE0FEE0FE40FFF27FF1FEA0F77
:103D1000FB1F9089002341F0292B208B4F5F2089C6
:103D2000CD010F910C94B21C20952923F6CF0F9151
:103D30000895EF92FF920F93CF93DF937C01C0E041
:103D4000D0E000E02D2F4C2FF70166A184A195A1B2
:103D50000E946D1EDF5FD830A1F7CF5FC83081F7BA
:103D6000DF91CF910F91FF90EF900895EF92FF9226
:103D70000F93CF93DF937C01C0E0D0E001E02D2FC3
:103D80004C2FF70166A184A195A10E946D1EDF5FF3
:103D9000D830A1F7CF5FC83081F7DF91CF910F9175
:103DA000FF90EF9008950F93CF93DF93EC0100E025
:103DB00026E042E06EA18CA19DA10E946D1E26E02E
:103DC00043E06EA18CA19DA10E946D1EDF91CF9159
:103DD0000F9108950F93CF93DF93EC0101E026E05C
:103DE00042E06EA18CA19DA10E946D1E26E043E0E1
:103DF0006EA18CA19DA10E946D1EDF91CF910F91AC
:103E00000895CF92DF92EF92FF920F931F93CF937B
:103E1000DF93EC014FA368A7473014F086E08FA32F
:103E20008FA187FD1FA2673014F086E088A788A5C0
:103E300087FD18A61FA1F12CE12C86E0C82ED12CFD
:103E40008CA19DA16EA12FA1022E000C330BA60107
:103E50004E195F0900E0241735070CF001E02E2D04
:103E600042E00E946D1E2E2D43E06EA18CA19DA10B
:103E70000E946D1E8FEFE81AF80A86E0E816F1043A
:103E8000F9F689A58823C9F0E11AF10817FDF39422
:103E90002FEF30E002C035952795EA94E2F740E035
:103EA0006EA18CA19DA1DF91CF911F910F91FF90E9
:103EB000EF90DF90CF900C94091EDF91CF911F916E
:103EC0000F91FF90EF90DF90CF900895EF92FF92C7
:103ED0000F93CF937C01C0E000E02C2F42E0F7016C
:103EE00066A184A195A10E946D1E2C2F43E0F701CD
:103EF00066A184A195A10E946D1ECF5FC63061F7B7
:103F0000CF910F91FF90EF900895CF93DF93EC0145
:103F100084960E943F1ECE01855B9F4F0E942F1EFC
:103F2000CE018E589F4F0E94661FCE0184569F4F30
:103F30000E94D31ECE018B539F4F0E941F1ECE01A5
:103F400084519F4FDF91CF910C941314EF92FF9205
:103F50000F93CF937C01C0E001E02C2F42E0F701EA
:103F600066A184A195A10E946D1E2C2F43E0F7014C
:103F700066A184A195A10E946D1ECF5FC63061F736
:103F8000CF910F91FF90EF900895CF93DF93EC01C5
:103F900084960E94521ECE01855B9F4F0E94371E61
:103FA000CE018E589F4F0E94A61FCE0184569F4F70
:103FB0000E94EA1ECE018B539F4F0E94271ECE0106
:103FC00084519F4FDF91CF910C9436140F931F9320
:103FD000CF93DF93EC0110E020E0412F6EA18CA184
:103FE0009DA10E94091E1F5F1430B1F78FA1882385
:103FF000B1F000E025E044E06EA18CA19DA10E94FB
:104000006D1E25E045E06EA18CA19DA10E946D1E54
:1040100025E046E06EA18CA19DA10E946D1EDF915E
:10402000CF911F910F9108950F931F93CF93DF931B
:10403000EC0110E02FEF412F6EA18CA19DA10E94F9
:10404000091E1F5F1430B1F78FA18823B1F001E082
:1040500025E044E06EA18CA19DA10E946D1E25E08B
:1040600045E06EA18CA19DA10E946D1E25E046E059
:104070006EA18CA19DA10E946D1EDF91CF911F9119
:104080000F9108950F931F93CF93DF93EC018FA1AE
:10409000882309F449C088A5882309F445C0CE01C6
:1040A00089960E94130501E029AD3AAD4BAD5CAD98
:1040B00069A97AA98BA99CA90E94A03887FD00E074
:1040C00025E046E06EA18CA19DA10E946D1E01E03D
:1040D000FE01FD96208131814281538169A97AA92F
:1040E0008BA99CA90E94A03887FD00E025E045E04F
:1040F0006EA18CA19DA10E946D1E01E0FE01EF5BEF
:10410000FF4F208131814281538169A97AA98BA90E
:104110009CA90E94A03887FD00E025E044E06EA144
:104120008CA19DA10E946D1E8E85833008F01E8695
:1041300010E000E0EE8584E0E89FF0011124E00F3C
:10414000F11FE55CFE4F4491E881F9810488F5890F
:10415000E02D602FCE0109950F5F1F4F0430110530
:1041600049F78E858F5F8E87DF91CF911F910F91D9
:1041700008950F931F93CF93DF93EC018FA18823B2
:1041800009F45DC088A5882309F459C0CE01899639
:104190000E9413052DA93EA94FA958AD69A97AA976
:1041A0008BA99CA90E94A03887FF08C0E881F981EB
:1041B0000088F189E02D61E0CE01099501E029AD8B
:1041C0003AAD4BAD5CAD69A97AA98BA99CA90E94B7
:1041D000A03887FD00E025E046E06EA18CA19DA1FE
:1041E0000E946D1E01E0FE01FD9620813181428119
:1041F000538169A97AA98BA99CA90E94A03887FD3F
:1042000000E025E045E06EA18CA19DA10E946D1EFD
:1042100001E0FE01EF5BFF4F20813181428153813C
:1042200069A97AA98BA99CA90E94A03887FD00E002
:1042300025E044E06EA18CA19DA10E946D1E8E859B
:104240008A3008F01E8610E000E0EE8584E0E89FEA
:10425000F0011124E00FF11FED5EFE4F4491E88163
:10426000F9810488F589E02D602FCE0109950F5F53
:104270001F4F0430110549F78E858F5F8E87DF91C0
:10428000CF911F910F9108950F931F93CF93DF93B9
:10429000EC018FA1882309F45DC088A5882309F467
:1042A00059C0CE0189960E9413052DA93EA94FA998
:1042B00058AD69A97AA98BA99CA90E94A03887FD4D
:1042C00008C0E881F9810088F189E02D64E0CE0121
:1042D000099501E029AD3AAD4BAD5CAD69A97AA96C
:1042E0008BA99CA90E94A03887FD00E025E046E04C
:1042F0006EA18CA19DA10E946D1E01E0FE01FD96A4
:10430000208131814281538169A97AA98BA99CA915
:104310000E94A03887FD00E025E045E06EA18CA159
:104320009DA10E946D1E01E0FE01EF5BFF4F208109
:1043300031814281538169A97AA98BA99CA90E94E4
:10434000A03887FD00E025E044E06EA18CA19DA18E
:104350000E946D1E8E858C3108F01E8610E000E0F4
:10436000EE8584E0E89FF0011124E00FF11FED5588
:10437000FF4F4491E881F9810488F589E02D602F91
:10438000CE0109950F5F1F4F0430110549F78FA12A
:10439000882309F42FC088A581112CC0EE85E15037
:1043A000EA3108F027C0F0E0E852FE4D0C94A03747
:1043B000F221FA21F221FA210222FA21F221FA2134
:1043C000FA210422FA210F22FA210222FA21F221F3
:1043D000FA210222FA21F221FA21F221FA21F22114
:1043E000FA21022200E025E044E06EA18CA19DA10B
:1043F0000E946D1E8E858F5F8E87DF91CF911F91FA
:104400000F91089501E0EFCF01E025E044E06EA1B7
:104410008CA19DA10E946D1E25E045E0E6CF00E045
:10442000F4CF1F93CF93DF93EC01162F6F8FE881AA
:10443000F981613081F008F4BBC0623009F443C0F7
:10444000633009F477C00088F189E02D61E0DF91E5
:10445000CF911F9109948BE596E099A388A30288D8
:10446000F389E02D60E177E2CE0109951E8661E0D7
:10447000CE0184960E94110763E0CE01855B9F4FB9
:104480000E94B20661E0CE018E589F4F0E949906AD
:10449000FE01E556FF4F108361E0CE0184569F4F29
:1044A0000E94800661E0CE018B539F4F0E946706F9
:1044B00061E0CE0184519F4F0E947E041E87DF91F0
:1044C000CF911F9108958AE297E099A388A302886B
:1044D000F389E02D60E177E2CE0109951E8661E067
:1044E000CE0184960E94110763E0CE01855B9F4F49
:1044F0000E94B20661E0CE018E589F4F0E9499063D
:10450000FE01E556FF4F81E0808361E0CE018456D5
:104510009F4F0E94800661E0CE018B539F4F0E9407
:10452000670662E0CE0184519F4FDF91CF911F91CA
:104530000C947E048DE194E299A388A30288F38908
:10454000E02D68EC70E0CE0109951E86FE01ED5B62
:10455000FF4F1082CE0184960E94450660E0CE0196
:10456000855B9F4F0E94B206CE018E589F4FFC0183
:10457000178E0E942F06FE01E556FF4F81E08083D3
:10458000CE0184569F4FFC01178E0E941906CE0162
:104590008B539F4FFC01178E0E940306CE0184515E
:1045A0009F4FFC01178EDF91CF911F910C946404F3
:1045B00019A218A20288F389E02D70E060E0099545
:1045C0001E86FE01ED5BFF4F1082CE0184960E9495
:1045D000450660E0CE01855B9F4F0E94B206CE018A
:1045E0008E589F4FFC01178E0E942F06FE01E55644
:1045F000FF4F81E08083CE0184569F4FFC01178ED0
:104600000E941906CE018B539F4FFC01178E0E940A
:104610000306CE0184519F4FFC01178E0E94640453
:10462000E881F9810284F385E02DCE01DF91CF91FD
:104630001F910994CF92DF92EF92FF926B017C0160
:10464000C114D104E104F10441F00E947D33A701BB
:1046500096010E94E2366B017C01C701B601FF9012
:10466000EF90DF90CF900895CF92DF92EF92FF927C
:10467000CF93DF93EC018E819F81892B09F441C098
:104680000E94C502CA80DB80EC80FD80AB01BC01CA
:104690004C195D096E097F098E819F81B0E0A0E011
:1046A00084179507A607B70760F5E8A1F9A1309729
:1046B00011F0CE0109958F858823E9F06C857D8501
:1046C0006F5F7F4FCB01B0E0A0E0CA84DB84F12CA8
:1046D000E12CC816D906EA06FB065CF4CD016C197C
:1046E0007D098E099F090E941A23C60ED71EE81E57
:1046F000F91EDF82CE820E94C5026A837B838C838F
:104700009D838D899E89892B09F441C00E94C50231
:10471000C988DA88EB88FC88AB01BC014C195D09BB
:104720006E097F098D899E89B0E0A0E08417950706
:10473000A607B70760F5EAA1FBA1309711F0CE01FB
:1047400009958D8D8823E9F06B8D7C8D6F5F7F4F90
:10475000CB01B0E0A0E0C98CDA8CF12CE12CC816BA
:10476000D906EA06FB065CF4CD016C197D098E09B9
:104770009F090E941A23C60ED71EE81EF91EDE8A64
:10478000CD8A0E94C502698B7A8B8B8B9C8BDF91C3
:10479000CF91FF90EF90DF90CF900895CF93DF936C
:1047A000EC010E9434236E8D8CA59DA5DF91CF91E5
:1047B0000C94F713CF93DF93EC010E943423CE01C6
:1047C00084960E943423CE01855B9F4F0E94342340
:1047D000CE018E589F4F0E943423CE0184569F4FA6
:1047E0000E943423CE018B539F4F0E943423CE016D
:1047F00084519F4FDF91CF910C94CE231F93CF9381
:10480000DF93EC0163E070E080E090E00E941A2307
:10481000162F63E070E080E090E00E941A234EA51E
:104820004150410F4EA78FA58150680F6FA7CE0151
:10483000DF91CF911F910C945A140F931F93CF9334
:10484000DF93EC016E856F3068F4462F84519F4FE3
:104850000E945A148E858F5F8E87DF91CF911F91B2
:104860000F9108958BE490E09F838E838E010B530C
:104870001F4F6F506E3190F462E070E080E090E086
:104880000E941A23672B682B692B21F0C8010E9414
:10489000271EE0CFC8010E941F1EDCCFC8010E9466
:1048A000271E84E690E09F838E838E010C5D1F4F50
:1048B0008E858D528A3090F462E070E080E090E066
:1048C0000E941A23672B682B692B21F0C8010E94D4
:1048D000521EC0CFC8010E943F1EBCCFC8010E941B
:1048E000521E82E390E09F838E838E0104561F4FF9
:1048F0008E8587538A3090F462E070E080E090E02B
:104900000E941A23672B682B692B21F0C8010E9493
:10491000EA1EA0CFC8010E94D31E9CCFC8010E94EE
:10492000EA1E8CE291E09F838E836E85CE018E58C5
:104930009F4F2FEB260F263028F46054462F0E94FD
:10494000011F88CF0E94A61FE881F9810088F189A4
:10495000E02D62E0CE01DF91CF911F910F9109947C
:104960000F93CF93DF93EC0162E070E080E090E082
:104970000E941A2321E0672B682B692B09F420E0A1
:104980002FA362E070E080E090E00E941A2321E013
:10499000672B682B692B09F420E028A70FA126E0DC
:1049A00042E06EA18CA19DA10E946D1E08A526E08B
:1049B00043E06EA18CA19DA10E946D1EDF91CF915D
:1049C0000F9108951F93CF93DF93EC0163E070E0A4
:1049D00080E090E00E941A23162F63E070E080E0F0
:1049E00090E00E941A234FA14150410F4FA388A588
:1049F0008150680F68A7CE01DF91CF911F910C9471
:104A0000011F4F925F926F927F928F929F92AF920F
:104A1000BF92CF92DF92EF92FF92CF93823009F450
:104A20007FC070F4882379F1813009F463C00E945B
:104A30007D3320E031E040E050E00E94E2364BC0A0
:104A4000853009F483C0863009F49DC0843079F73D
:104A50000E947D332B013C010E947D334B015C01A0
:104A6000C12CD12C7601D394C301B201A7019601C8
:104A70000E94E236C62FC501B401A70196010E942B
:104A8000E2366C2B28C00E947D332B013C010E9432
:104A90007D334B015C01C12CD12C7601D394C30131
:104AA000B201A70196010E94E236C62FC501B401EA
:104AB000A70196010E94E236C6230E947D33A7011A
:104AC00096010E94E236C6230E947D33A70196011B
:104AD0000E94E2366C23862FCF91FF90EF90DF90FB
:104AE000CF90BF90AF909F908F907F906F905F908E
:104AF0004F9008950E947D332B013C010E947D332D
:104B00004B015C01C12CD12C7601D394C301B201BD
:104B1000A70196010E94E236C62FC501B401CFCF8E
:104B20000E947D332B013C010E947D334B015C01CF
:104B3000C12CD12C7601D394C301B201A7019601F7
:104B40000E94E236C62FC501B401C0CF0E947D335A
:104B50002B013C010E947D334B015C01C12CD12C07
:104B60007601D394C301B201A70196010E94E236F7
:104B7000C62FC501B401A70196010E94E236C62BDB
:104B80000E947D337ACF0E947D332B013C010E942D
:104B90007D334B015C01C12CD12C7601D394C30130
:104BA000B201A70196010E94E236C62FC501B401E9
:104BB000A70196010E94E236C62B0E947D33DBCF0F
:104BC0000F931F93CF93DF93EC010CA11DA184E001
:104BD0000E940125282F41E06EA1C801DF91CF91ED
:104BE0001F910F910C94091E0F931F93CF93DF9386
:104BF000EC010CA11DA184E00E940125282F40E0BA
:104C00006EA1C801DF91CF911F910F910C94091EE5
:104C10000F931F93CF93DF93EC010CA11DA184E0B0
:104C20000E940125282F44E06EA1C8010E94091EA0
:104C30000CA11DA184E00E940125282F45E06EA152
:104C4000C801DF91CF911F910F910C94091EBF9263
:104C5000CF92DF92EF92FF920F931F93CF93DF9348
:104C6000EC018EA5882309F44EC08FA5882309F492
:104C70004AC0CE01C0960E941305FE01E05CFF4FC2
:104C8000208131814281538168AD79AD8AAD9BAD80
:104C90000E94A038EFA1F8A514AE87FD81C080E87E
:104CA00085AF16AE0FA118A5FE01EC5BFF4F20816A
:104CB00031814281538168AD79AD8AAD9BAD0E944F
:104CC000A038F801FF9687FD6DC08FEFD801DF9601
:104CD0008C93818312820FA118A5FE01E85BFF4F20
:104CE000208131814281538168AD79AD8AAD9BAD20
:104CF0000E94A038F801EE5BFF4F87FD58C08FEF90
:104D00008083118212828EA5882309F45BC08FA54F
:104D1000811158C062E070E080E090E00E941A23A8
:104D2000EFA1F8A5EE5BFF4F672B682B692B09F409
:104D300040C08FEF80831182128262E070E080E0D9
:104D400090E00E941A23EFA1F8A5DF01DF96672B00
:104D5000682B692B81F18FEF87AF11968C93119798
:104D600012961C9262E070E080E090E00E941A23AC
:104D7000EFA1F8A514AE672B682B692B09F180E829
:104D800085AF16AE6E8D8CA59DA5DF91CF911F913D
:104D90000F91FF90EF90DF90CF90BF900C94F7139E
:104DA00015AE7FCFD801DF961C92118293CF10826F
:104DB000A8CF1082C0CF17AE11961C921197D0CFFA
:104DC00015AEDFCFE881F981048915890E947D3312
:104DD00024E0C22ED12CE12CF12CA70196010E94D7
:104DE000E236862F0E940125B82E0E947D33A7014E
:104DF00096010E94E2364B2DCE01F8010995C2CFF3
:104E0000BF92CF92DF92EF92FF920F931F93CF93B7
:104E1000DF93EC01E881F981048915898FA188234A
:104E200021F188A5811121C00E947D3324E030E06A
:104E300040E050E00E94E236862F0E940125F82EC5
:104E40000E947D3327E030E040E050E00E94E236EF
:104E50004F2DCE01F801DF91CF911F910F91FF905F
:104E6000EF90DF90CF90BF9009940E947D3324E0B3
:104E7000C22ED12CE12CF12CA70196010E94E23622
:104E8000862F0E940125B82E0E947D33A70196012E
:104E90000E94E2364B2DDDCF0C94CC360F931F933E
:104EA000CF93DF93EC0189E090E00E944C27E881EA
:104EB000F9810484F585E02D682FCE01099589E3F9
:104EC00090E00E944C27E881F9810088F189E02D6B
:104ED000682FCE0109958BE290E00E944C27082FA5
:104EE0008AE190E00E944C27182F89E190E00E940F
:104EF0004C27E881F9810684F785E02D202F412F8A
:104F0000682FCE01DF91CF911F910F9109940F93DC
:104F10001F93CF93DF93EC0187E090E00E944C2732
:104F2000E881F9810484F585E02D682FCE0109958B
:104F300087E390E00E944C27E881F9810088F1899D
:104F4000E02D682FCE01099588E190E00E944C2762
:104F5000082F87E190E00E944C27182F86E190E00F
:104F60000E944C27E881F9810684F785E02D202FE7
:104F7000412F682FCE01DF91CF911F910F9109949E
:104F8000CF93DF93EC0181E090E00E944C27E88111
:104F9000F9810484F585E02D682FCE01099581E320
:104FA00090E00E944C27E881F9810088F189E02D8A
:104FB000682FCE01DF91CF9109940F931F93CF9368
:104FC000DF93EC0183E090E00E944C27E881F981B7
:104FD0000484F585E02D682FCE01099583E390E0E8
:104FE0000E944C27E881F9810088F189E02D682F23
:104FF000CE01099582E190E00E944C27082F81E1C3
:1050000090E00E944C27182F80E190E00E944C27EE
:10501000E881F9810684F785E02D202F412F682F44
:10502000CE01DF91CF911F910F910994CF93DF9320
:10503000EC0182E090E00E944C27E881F981048431
:10504000F585E02D682FCE01099582E390E00E945E
:105050004C27E881F9810088F189E02D682FCE0185
:10506000DF91CF910994CF92DF92EF92FF920F934D
:105070001F93CF93DF93EB017B0124E0E20EF11C41
:105080008B016C01C61AD70AC601800F911F0E94BE
:10509000CC36F80181938F01EE15FF05A9F7CE01FB
:1050A000DF91CF911F910F91FF90EF90DF90CF9004
:1050B00008950E94CA39FF920F931F93CF93DF93F5
:1050C000EC01F62E08811981C8010E94CC36F81631
:1050D00021F06F2DC8010E94D436CE01DF91CF910F
:1050E0001F910F91FF9008950F931F93CF93DF931C
:1050F00000D0CDB7DEB78C0188E590E09A83898334
:10510000F8016081CE0101960E945B28C8010F90D2
:105110000F90DF91CF911F910F910895CF93DF935F
:1051200000D0CDB7DEB79A838983CE0101960E9465
:105130005B280F900F90DF91CF910895FC01668D51
:1051400088E090E00C948E28CF93DF93EC016E8D75
:1051500081E090E00E948E286F8D81E390E0DF91E6
:10516000CF910C948E28CF93DF93EC016E8D89E064
:1051700090E00E948E2869A589E190E00E948E2827
:105180006AA58AE190E00E948E286BA58BE290E0F0
:105190000E948E286F8D89E390E0DF91CF910C946F
:1051A0008E28CF93DF93EC016E8D87E090E00E9414
:1051B0008E2869A586E190E00E948E286AA587E185
:1051C00090E00E948E286BA588E190E00E948E28D6
:1051D0006F8D87E390E0DF91CF910C948E28CF9371
:1051E000DF93EC016E8D83E090E00E948E2869A52C
:1051F00080E190E00E948E286AA581E190E00E9403
:105200008E286BA582E190E00E948E286F8D83E34B
:1052100090E0DF91CF910C948E28CF93DF93EC0137
:105220006E8D82E090E00E948E286F8D82E390E088
:10523000DF91CF910C948E280F931F93CF93DF9320
:1052400000D0CDB7DEB78B019A838983FB016081E3
:10525000CE0101960E945B28C8010F900F90DF914C
:10526000CF911F910F910895AF92BF92CF92DF928D
:10527000EF92FF920F931F93CF93DF9300D0CDB7A0
:10528000DEB78B016B0124E0C20ED11C7B015C01F7
:10529000A61AB70AC5018E0D9F1D9A838983F7014F
:1052A00061917F01CE0101960E945B28EC14FD0400
:1052B00089F7C8010F900F90DF91CF911F910F9147
:1052C000FF90EF90DF90CF90BF90AF9008950F9335
:1052D0001F93CF93DF9300D000D0CDB7DEB7182F48
:1052E00090E080E00E944C278C3019F4112309F4DF
:1052F0000DC18CE08983BE016F5F7F4F90E080E03D
:105300000E941C291AE01983BE016F5F7F4F81E064
:1053100090E00E941C291983BE016F5F7F4F82E0DD
:1053200090E00E941C291983BE016F5F7F4F83E0CC
:1053300090E00E941C2909E10983BE016F5F7F4F45
:1053400086E090E00E941C290983BE016F5F7F4FB9
:1053500087E090E00E941C291983BE016F5F7F4F98
:1053600088E090E00E941C291FEF1983BE016F5F47
:105370007F4F80E190E00E941C291982BE016F5F7F
:105380007F4F81E190E00E941C291982BE016F5F6E
:105390007F4F82E190E00E941C291982BE016F5F5D
:1053A0007F4F83E190E00E941C291982BE016F5F4C
:1053B0007F4F84E190E00E941C291983BE016F5F3A
:1053C0007F4F85E190E00E941C291982BE016F5F2A
:1053D0007F4F86E190E00E941C291982BE016F5F19
:1053E0007F4F87E190E00E941C291983BE016F5F07
:1053F0007F4F88E190E00E941C2983E08983BE01F1
:105400006F5F7F4F81E390E00E941C2911E01983B8
:10541000BE016F5F7F4F82E390E00E941C291983D9
:10542000BE016F5F7F4F83E390E00E941C291983C8
:10543000BE016F5F7F4F86E390E00E941C291983B5
:10544000BE016F5F7F4F87E390E00E941C2980E0E0
:1054500090E5A3ECB7E489839A83AB83BC83BE0158
:105460006F5F7F4F80E490E00E94342980E090E4F9
:10547000ACE1B6E489839A83AB83BC83BE016F5FE2
:105480007F4F84E490E00E94342980E090E0A8E31C
:10549000B1E489839A83AB83BC83BE016F5F7F4F86
:1054A00088E490E00E94342980E090E0A0E4B1E438
:1054B00089839A83AB83BC83BE016F5F7F4F8CE48B
:1054C00090E00E94342980E090E0A8E4B1E4898370
:1054D0009A83AB83BC83BE016F5F7F4F80E590E012
:1054E0000E94342980E090E0A0E5B1E489839A83AA
:1054F000AB83BC83BE016F5F7F4F84E590E00E9469
:1055000034291983CE0101960E9474280F900F90C0
:105510000F900F90DF91CF911F910F9108951F92DF
:105520000F920FB60F9211242F933F938F939F9357
:10553000AF93BF9380917B0390917C03A0917D03F7
:10554000B0917E0330917A0323E0230F2D3758F575
:105550000196A11DB11D20937A0380937B03909344
:105560007C03A0937D03B0937E0380917F03909191
:105570008003A0918103B09182030196A11DB11D0A
:1055800080937F0390938003A0938103B093820361
:10559000BF91AF919F918F913F912F910F900FBE2F
:1055A0000F901F90189526E8230F0296A11DB11D9C
:1055B000D2CF1F920F920FB60F9211242F933F93C9
:1055C0004F935F936F937F938F939F93AF93BF930B
:1055D000EF93FF9383E893E00E944F03FF91EF91D5
:1055E000BF91AF919F918F917F916F915F914F91FB
:1055F0003F912F910F900FBE0F901F9018951F9203
:105600000F920FB60F9211242F938F939F93EF93C6
:10561000FF93E0919303F09194038081E0919903CB
:10562000F0919A0382FD1BC0908180919C038F5F53
:105630008F7320919D03821741F0E0919C03F0E06D
:10564000ED57FC4F958F80939C03FF91EF919F91B5
:105650008F912F910F900FBE0F901F901895808102
:10566000F4CFE3E8F3E01382128288EE93E0A0E047
:10567000B0E084839583A683B7838FED92E0918316
:10568000808385EC90E09587848784EC90E0978711
:10569000868780EC90E0918B808B81EC90E0938BFF
:1056A000828B82EC90E0958B848B86EC90E0978BDC
:1056B000868B118E128E138E148EE0E2F4E08FEF43
:1056C000808312821182148613868FEF9FEFDC0194
:1056D00087839087A187B2871382148215821682EE
:1056E0000895CF93DF93CDB7DEB7EB970FB6F8945D
:1056F000DEBF0FBECDBF789484B5826084BD84B513
:10570000816084BD85B5826085BD85B5816085BDBC
:1057100080916E00816080936E0010928100809174
:1057200081008260809381008091810081608093FC
:105730008100809180008160809380008091B10021
:1057400084608093B1008091B00081608093B0004C
:1057500080917A00846080937A0080917A008260E0
:1057600080937A0080917A00816080937A008091A2
:105770007A00806880937A001092C100E0919303D0
:10578000F091940392E0592E5082E0918F03F091B2
:1057900090031082E0919103F091920380E1808365
:1057A00010929B03E0919703F091980386E0808329
:1057B000E0919503F0919603808180618083E09170
:1057C0009503F0919603808188608083E091950332
:1057D000F0919603808180688083E0919503F09139
:1057E000960380818F7D808381E390E00E94A538BD
:1057F0008C01DC0190961C92909792961C921E92BE
:10580000919794961C921E92939796961C921E9234
:10581000959798961C921E9297979A961C921E9214
:1058200099979C961C921E929B979D961C929D9771
:105830009E961C929E97D0961C921E929F9784E5EE
:1058400090E00E94A5387C015C01B0E5AB0EB11C74
:105850002AE0422EF50140823C01F1E56F0E711CF9
:105860008BE0D3018C934701B2E58B0E911C8CE049
:10587000F40180836701F3E5CF0ED11CD6015C9261
:1058800061E08AE00E94640261E0F30180810E948D
:10589000640261E0D4018C910E94640261E0F40131
:1058A00080810E943602D5014C92F70170961192C8
:1058B000EA15FB05E1F7B12CF6018081B81650F529
:1058C00020E04FE06B2DC7010E94B21CD6018C91E5
:1058D000B81630F427E04BE06B2DC7010E94B21CD4
:1058E00020E049E06B2DC7010E94B21CF6018081C7
:1058F000B81620F46B2DC7010E945D1DD6018C9156
:10590000B81630F420E04CE06B2DC7010E94B21CA9
:10591000B394D2CFF801F2A2E1A284E590E00E9414
:10592000A5387C0180911003811111C088EF92E0AD
:105930000E94B11310920F0310920E0383E691E0C0
:105940009093F9028093F80281E0809310034CE178
:1059500050E0B70188EF92E00E94A0014C018FE176
:1059600091E00E94A5387C01D8019196AD90BC9041
:105970000E94100489E092E0F70191838083C701BF
:1059800084960E941004F701E85BFF4FB182A08269
:105990003296108281EF91E0D70195969C938E9379
:1059A00094976701BBE4CB0ED11CC6010E94100482
:1059B000F601B5A2A4A216A289ED91E0918380839D
:1059C0006701F2E7CF0ED11CC6010E941004D60178
:1059D0009596BC92AE92949796961C92969781EC6F
:1059E00091E011969C938E9383E097968C93979772
:1059F00098968C93989799961C926701BCE9CB0E68
:105A0000D11CC6010E941004F601B5A2A4A216A2E0
:105A100089EA91E09183808317A210A66701F5ECD3
:105A2000CF0ED11CC6010E941004D6019596BC92DF
:105A3000AE92949796961C92969781E991E08D93F9
:105A40009C936701BCEECB0ED11CB401C6010E9431
:105A5000390489E791E0F6019183808387E086A786
:105A600087A7F096108211828FEF8283D8019496D7
:105A7000FC92EE92939786E490E00E94A5387C0118
:105A8000F801C1A0D2A00E941004D7019596DC9223
:105A9000CE929497DD24D3949696DC92969781E2E9
:105AA00092E011969C938E9397961C929797989656
:105AB0001C9280E090E5A3ECB7E4F70181A792A7E0
:105AC000A3A7B4A780E090E4ACE1B6E485A796A7CD
:105AD000A7A7B0AB11AA12AA13AA14AA80E090E05B
